:020000041000EA
:1000000000B5324B212058609868022188439860DF
:10001000D860186158612E4B002199600221596106
:100020000121F02299502B49196001219960352056
:1000300000F044F80222904214D00621196600F024
:1000400034F8196E01211966002018661A6600F04E
:100050002CF8196E196E196E052000F02FF8012189
:100060000842F9D1002199601B49196000215960AB
:100070001A491B48016001219960EB211966A021F2
:10008000196600F012F800219960164914480160C1
:100090000121996001BC002800D000471248134993
:1000A000086003C880F30888084703B5996A0420EC
:1000B0000142FBD001200142F8D103BD02B5186610
:1000C0001866FFF7F2FF186E186E02BD00000240BE
:1000D000000000180000070000035F00212200005C
:1000E000F4000018222000A00001001008ED00E03C
:1000F00000000000000000000000000074B24E7A12
:1001000000200420F7010010C3010010C5010010F9
:10011000C1010010C1010010C1010010C101001097
:10012000C1010010C1010010C1010010C701001081
:10013000C1010010C1010010C9010010CB01001065
:10014000CD010010CD010010CD010010CD01001037
:10015000CD010010CD010010CD010010CD01001027
:10016000CD010010CD010010CD010010CD01001017
:10017000CD010010CD010010CD010010CD01001007
:10018000CD010010CD010010CD010010CD010010F7
:10019000CD010010CD010010CD010010CD010010E7
:1001A000CD010010CD010010CD010010CD010010D7
:1001B000CD010010CD010010CD010010CD010010C7
:1001C00000BE00BE00BE00BE00BE00BE00F04BF888
:1001D000103800BEF2EB887178AA06109CAA0610AF
:1001E0003402001090A31AE700202149086006C8D5
:1001F00081F3088810471F48006800282FD10DA4FC
:100200000ECC002902D000F012F8F9E71A491B4A77
:10021000002000E001C19142FCD1194988471949E9
:1002200088471949884700BEFDE701C901C29A42C3
:10023000FBD370479CAA0610C0000020D41E0020EB
:10024000B0C806100000042000000420B0C806104A
:1002500000100420001004200000000070470B482C
:1002600010F036FC0047EFF30580C0B27047000085
:1002700008ED00E0000000D0D81E0020604E0220F3
:1002800021EB0010D505001055EC0010575600006A
:1002900006005250ABB36053402B0610060052507C
:1002A000861C0302502B0610060052505422A29DB9
:1002B000642B061005005250DE65F468B0C80610C5
:1002C000F8B5C0460448054B10B5834203D0044B33
:1002D000002B00D0984710BDD41E0020D41E002053
:1002E0000000000006480749091A8B10C90FC918F9
:1002F00010B5491003D0044B002B00D0984710BD17
:10030000D41E0020D41E00200000000010B5074CB1
:100310002378002B09D1FFF7D5FF054B002B02D026
:10032000044800E000BF0123237010BD1820002006
:1003300000000000B0720110054B10B5002B03D077
:100340000449054800E000BFFFF7CCFF10BDC046E0
:10035000000000001C200020B072011030B5130016
:10036000140083B00A000D000A4900F08BFE202122
:10037000094B01A8094AC4700380857002AC9369D7
:100380001942FCD10378013013608442F7D103B0E5
:1003900030BDC046B072011055BBFFFF00400340A6
:1003A00000B583B014F08CFE194B0021502200934D
:1003B0000020A02314F0D0FFFA2080000DF0ACFF45
:1003C0001448154B0022436000230372243303704A
:1003D000124B1B68C360124B1B680361114B1B68F7
:1003E0004361114B1B688361104B1B68C361104B49
:1003F0001B6803620F4B436200238262C36214F0E6
:100400003DFC002014F076FF002003B000BDC04684
:10041000BC410610D81E002044160020F414002011
:10042000F8140020F014002000150020FC14002017
:100430000415002000002050F0B5DE4657464E4619
:100440004546E0B583B060488A460C999046994687
:1004500014F084FC9020C00111F004FD9027834625
:100460000300FC201F21FF010C9A5F44C0000025FF
:10047000555701322C02EE00E40AE4020640ED106A
:1004800034430D402543ACB224121C705D7002331E
:100490009F42ECD15B466022002100200093602344
:1004A00014F05AFF584611F0E5FC2021474A9369A1
:1004B0001942FCD1552320211360444A9369194203
:1004C000FCD1AA2313609022920194460C9B202217
:1004D00063441D000C9C3D4910008B6918401A4272
:1004E000FAD1237801340B60A542F5D15346474633
:1004F0005F434B467B431F1E54DD03240C9B5B4232
:100500001C40E31C052B55D37A1E93425AD8002C6D
:1005100054D00C9B0C9A1B78803B1370012C4BD051
:100520005378803B5370022C4AD09378803B937071
:1005300003233A1B94460C9A254D90466246920836
:100540004444920021586940215004308242F9D13C
:10055000032261469143CB18614523D00C9A0C9934
:10056000D25C803ACA545A1CBA421BDA0800895C31
:10057000803981549A1C974214DD815C8039815402
:10058000DA1C97420EDD815C803981541A1D974236
:1005900008DD815C0533803981549F4202DDC25CF5
:1005A000803AC254002003B03CBC90469946A24613
:1005B000AB46F0BD0523A7E70123BAE70023B8E760
:1005C0000223B6E70023C9E7D81E002000400340FD
:1005D0008080808010B511F01BFE00F087F900F0DC
:1005E000C7FCFCE700230360436083607047C0469C
:1005F000F0B510212020FF250D270F4B0F4A0026B4
:100600009E5F9369194210D193691942FCD1146815
:1006100093691842F5D12C40A64207D0936918423D
:10062000FCD1146093691942EED0F0BD9369184271
:10063000FCD11760F2E7C046904B02200040034017
:100640007047C046030020291DD0A4228258002AEA
:1006500019D08069884218D0012A14D9986B814238
:1006600018D0022A0FD0986D814215D0032A0AD0E3
:10067000986F814212D0042A05D098229A580020FF
:100680008A420DD070470020FCE700204001043072
:100690001818F7E70120F9E70220F7E70320F5E74C
:1006A0000430F3E77047C046C42282580300002A92
:1006B0001DD0A820185C88421BD0012A17D9A92078
:1006C000185C88421AD0022A11D0AA20185C8842ED
:1006D00016D0032A0BD0AB20185C884212D0042A13
:1006E00005D0AC229A5C00208A420DD070470020D1
:1006F000FCE700222C329200D058F7E70122F9E7FC
:100700000222F7E70322F5E70422F3E710B50248D7
:1007100008F04AFE10BDC0466C410220A42370B50B
:10072000C55804000E00002D45D08369202B28D029
:10073000012D40D9A36B202B2DD0022D3BD0A36DD2
:10074000202B30D0032D36D0A36F202B08D0042DC2
:1007500031D09823E3580025202B09D0280070BD04
:100760003100E06F16F0A6FA0028F0D103250EE064
:100770007C333100E05816F09DFA0028EED10435A4
:1007800005E0C06916F096FA0028D1D100256D0168
:1007900004356519E2E73100E06B16F08BFA0028AA
:1007A000CBD10125F3E73100E06D16F083FA002884
:1007B000C8D10225EBE70025D0E7C0467047C04608
:1007C0000268030052691B4810B5824221D12029DA
:1007D0001DD0A4229A58002A19D0986988421BD0AB
:1007E000012A14D9986B81421BD0022A0FD0986D30
:1007F000814218D0032A0AD0986F814215D0042A6A
:1008000005D098229A5800208A4210D010BD0020AE
:10081000FCE718009047F9E7002040010430181861
:10082000F4E70120F9E70220F7E70320F5E70430B9
:10083000F3E7C0464506001003682B4A9B6970B574
:1008400004000D00934240D1A423C658002E48D086
:100850008369202B17D0012E43D9A36B202B1CD0EA
:10086000022E3ED0A36D202B1FD0032E39D0A36FB4
:10087000202B22D0042E34D09823E3580026202B9E
:1008800026D0300070BDC06916F014FA0028E2D1FD
:10089000002676010436A619F3E72900E06B16F06E
:1008A00009FA0028DCD10126F3E72900E06D16F0F3
:1008B00001FA0028D9D10226EBE72900E06F16F0F3
:1008C000F9F90028D6D10326E3E798470600D8E7D0
:1008D0007C332900E05816F0EDF90028D1D1043618
:1008E000D7E70026CDE7C0461D070010F0B5D64675
:1008F0004F464646C0B519208CB00DF01BF8D023EA
:1009000080221B0692045A625968890162D45A6196
:1009100016200DF00FF8D02380221B06D2035A6256
:100920005968490254D45A61E121CA4C4902200055
:100930000DF0D8F8022100200CF0E4FF0221012084
:100940000CF0E0FF6022E36A10255A406E2313404A
:10095000C14A14201360E36AC0492B4013600EF0B3
:100960001FFB012114200EF0F9FA3823A563626BF6
:100970001340BB4A136011F083FDBA4C2378BFF3D8
:100980005B8FDB0700D487E1B74AB84C5178137806
:10099000090219439378B6481B041943D378B54E1E
:1009A0001B060B439B181A6820609A1A1188336043
:1009B000042902D99288002A0ED100220323AE49CD
:1009C00000F060FB0CB01CBC90469946A246F0BDFE
:1009D0009A61A9E79A619BE79A58032AEED101220E
:1009E0001100A64F3B78BFF35B8F194088461A422F
:1009F00000D1DCE1A24D04AB1800994604F078FD6B
:100A0000A423EB58002B00D18DE2AA69012A00D162
:100A1000A2E1012B00D866E1AA6B012A00D19BE17B
:100A2000022B00D162E1AA6D012A00D194E1032BCF
:100A300000D15BE1AA6F012A00D18DE1042B00D126
:100A400054E19823EB58012B00D185E1C823E858E5
:100A5000002804D001228B49C33B00F013FB484619
:100A600002F0CEFAA423EB58002B00D155E2AA697C
:100A7000032A00D166E1012B00D8F9E1AA6B032A11
:100A800000D15FE1022B00D1F5E1AA6D032A00D16C
:100A900058E1032B00D1EEE1AA6F032A00D151E106
:100AA000042B00D1E7E19823EB58032B00D149E157
:100AB000C823E858002804D003227249C33B00F041
:100AC000E1FA484603F0A2FCA423EB58002B00D126
:100AD00026E2AA69042A00D152E1012B00D8ECE1F8
:100AE000AA6B042A00D14BE1022B00D1E8E1AA6DE8
:100AF000042A00D144E1032B00D1E1E1AA6F042ACA
:100B000000D13DE1042B00D1DAE19823EB58042B0E
:100B100000D135E1C823E858002804D004225949FF
:100B2000C33B00F0AFFA484606F088FDA423EB581B
:100B3000002B00D1EEE1AA69162A00D116E1012BA3
:100B400000D84BE1AA6B162A00D10FE1022B00D18D
:100B500047E1AA6D162A00D108E1032B00D140E13C
:100B6000AA6F162A00D101E1042B00D139E19823A4
:100B7000EB58162B00D1F9E0C823E858002804D020
:100B800016224049C33B00F07DFA484605F06AF85A
:100B9000A423EB58002B00D1C8E1AA69192A00D17F
:100BA000C6E0012B00D83EE1AA6B192A00D1BFE0B4
:100BB000022B00D13AE1AA6D192A00D1B8E0032B2B
:100BC00000D133E1AA6F192A00D1B1E0042B00D182
:100BD0002CE19823EB58192B00D1A9E0C823E85841
:100BE000002804D019222749C33B00F04BFA012208
:100BF0001100254F3B78BFF35B8F194088461A429E
:100C000057D0224E224D30002E6008F01DFD0028E6
:100C100000D0BFE00021286808F0FCFB1D4B1860E5
:100C20002068FFF7BDFB002800D06EE1D0231B0633
:100C30005A68920100D5B6E0802292045A61D0230E
:100C40001B065A68520200D5A9E08022D2035A61DD
:100C5000B8E6C046004003402C500340F1050010A8
:100C60003450034070200020407401109420002074
:100C7000101400209C200020D47201106820002055
:100C8000A04002206C7301106C2000206C410220F7
:100C90008020002098200020200014F0D9FB00289C
:100CA00000D171E6200014F0EFFBA24815F02AFCF9
:100CB0006AE6380014F0CCFB0028A2D04346316825
:100CC000029323689C4E019388239B022A00009381
:100CD00030009A4B08F006FB380014F0D5FB98481A
:100CE00015F010FC8EE7042B00D9AFE65A1C944691
:100CF0005B019846A8444346181D0200494689C92D
:100D000089C289C989C209C909C20120434662460C
:100D1000C4219861A423EA506B58EA18A8321070D5
:100D20001A0088482C3292000133A8506B5096E686
:100D3000C823E858002800D159E71922824900F059
:100D4000A1F954E7C823E858002800D1B9E60322E6
:100D50007D4900F097F9B4E6C823E858002800D18F
:100D60007DE60122784900F08DF978E6C823E8583D
:100D7000002800D109E71622734900F083F904E73F
:100D8000C823E858002800D1CDE604226E4900F0BF
:100D900079F9C8E620686D4900F074F912E68022FE
:100DA000D2039A610EE6802292049A6147E73800E6
:100DB00014F04EFB664D002800D11CE6654B424600
:100DC0002B60A423EA502033EA5004333800EA5061
:100DD00014F05AFB604815F095FB0CE6042B00D983
:100DE000CAE65A1C94465B019846A8444346181D1F
:100DF0000200494689C989C289C989C209C909C28B
:100E0000162043466246C4219861A423EA506B58D9
:100E1000EA18A83210701A0050482C3292000133A0
:100E2000A8506B50B1E6042B00D9D7E65A1C944663
:100E30005B019846A8444346191D0A004F460BCF54
:100E40000BC20BCF0BC219200ACF0AC2434662461F
:100E5000C4219861A423EA506B58EA18A832107094
:100E60001A003F482C3292000133A8506B50BEE666
:100E7000042B00D91CE65A1C94465B019846A844F2
:100E80004346181D0200494689C989C289C989C2D9
:100E900009C909C2032043466246C4219861A423BC
:100EA000EA506B58EA18A83210701A002D482C32FC
:100EB00092000133A8506B5003E6042B00D929E6B9
:100EC0005A1C90465B019A46AA4453460422181DB8
:100ED00094464946020089C989C289C989C209C99B
:100EE00009C262465346C4219A61A4234246604621
:100EF000EA506B58EA18A83210701A001A482C32BF
:100F000092000133A8506B500DE62068174900F09D
:100F1000B9F88BE60122944665E701229446ACE7D6
:100F200001229046CEE701229446E1E60122944652
:100F30007EE7C046410600106C410220A020002040
:100F40000D070010611300101C730110B073011025
:100F5000A040022020740110BD0700104D140010A5
:100F6000251500104D11001049120010CC7301100E
:100F7000D02330B51B065A6889B092014CD4802228
:100F800092045A612F4B304D1B6860221B6960210F
:100F9000009328680123FFF74FFA002842D12B4C19
:100FA000206808F021FC002846D10021206808F0C4
:100FB00087FA01240022036928681C579A562100E9
:100FC000FFF7CCF9D02380221B06D2035A2C27DD51
:100FD0005A6164228034624300241D49121205A81C
:100FE0000FF02CFD2823502278210A20009414F0C1
:100FF00029F9FC22174BD200029401925A687821F9
:1010000000921B6805AA0D2014F086F82868124982
:1010100000F038F809B030BD802292049A61B1E73F
:101020009A61D6E70D49286800F02CF8074C206833
:1010300008F0DAFB0028B8D00949286800F022F847
:10104000B3E7C04698200020942000208020002094
:10105000047401104C1600200C740110DC73011094
:10106000F4730110013080007047C0460D2803D88A
:10107000024B8000C05870470148FCE7E00A0610A8
:10108000580A06100EB400B582B003AA02CA03685B
:1010900001929B68984702B008BC03B01847C0464D
:1010A0000CB400B583B004AA02CA036801929B681D
:1010B000984703B008BC02B01847C046130010B5EB
:1010C0000C2836D81F4A8300D3589F460C23002093
:1010D0000B7010BD0D2300200B70FAE701230B707D
:1010E000F7E70A2300200B70F3E7022300200B70C0
:1010F000EFE7032300200B70EBE7042300200B70C5
:10110000E7E7052300200B70E3E7062300200B70C0
:10111000DFE7072300200B70DBE7082300200B70BC
:10112000D7E7092300200B70D3E70B2300200B70B7
:10113000CFE700220A70020003491800FFF7A2FF60
:101140000120C6E73C0B0610180B0610F8B5CE467A
:1011500047469946136804001B68100018210422B2
:1011600080B5984718220021050010F06FFE236813
:10117000E21A13880A2B50D9518900294DD0605C9E
:1011800001284AD10C2B48D99389E218002B44D06E
:1011900013689C4662441368D11A0B88042B47D904
:1011A0008C88002C06D01457002C03D0013C6042E0
:1011B000604140002870062B3BD9CC880020002CD1
:1011C00000D010596860082B35D90C890020002CFC
:1011D00000D01059A8600A2B30D94C890020002C6F
:1011E0000AD0105D0024A0464646471E0434FFB2D4
:1011F000BC4276417442204028730C2B14D98C8950
:101200000120002C00D0105928610E2B18D9C98953
:101210000123002900D053586B614B4600201D600C
:101220000CBC90469946F8BD01232B616B61F4E735
:101230002870002068600020A860DDE70020DBE760
:1012400001236B61E9E7C046F8B5CE4647469946AB
:10125000136804001B6810001C21042280B5984705
:101260001C220021050010F0F1FD2368E21A13880A
:101270000A2B59D95189002956D0675C022F53D1C6
:101280000C2B51D99389E218002B4DD013689C4642
:1012900062441368D11A0B88042B50D9888800281F
:1012A00056D01056002853D0013844426041404285
:1012B00007402F70062B44D9CC880020002C00D08A
:1012C00010596860082B3ED90C890020002C00D0F2
:1012D0001059A8600A2B38D94C890020002C00D066
:1012E0001059E8600C2B35D98C890020002C0AD0CD
:1012F000105D0024A0464646471E0434FFB2BC429F
:1013000076417442204028740E2B14D9CC890120D8
:10131000002C00D010596861102B1DD9098A0123B7
:10132000002900D05358AB614B4600201D600CBC17
:1013300090469946F8BD01236B61AB61F4E701204B
:101340002870002068600020A8600020E860DAE7CC
:101350000127AEE70020D6E70123AB61E4E7C046F2
:1013600070B51E00136804001B68100028210422B9
:10137000984728220021050010F068FD2368E21A32
:1013800013880A2B4FD9518900294CD0615C05295B
:1013900049D10C2B47D99389E218002B43D013680D
:1013A0009C4662441368D11A0B88042B3ED98C8862
:1013B0000120002C06D01457002C03D0013C6042C1
:1013C000604140002870062B32D9CC880020002CC8
:1013D00000D010596860082B2CD90C890020002CF3
:1013E00000D01059A8600A2B26D94C890020002C67
:1013F00000D01059E8600C2B20D98C890020002CDB
:1014000000D0105928610E2B1CD9C989002300294E
:1014100008D0535C04200022591EC9B288425241B0
:10142000524213402B753560002070BD01232B7094
:1014300000236B600023AB600023EB6000232B6173
:101440002B75F0E700232B75EDE7C046F0B5C646D7
:1014500016001F00136804001B68042200B58846AC
:1014600030002421984724220021050010F0EEFCD2
:101470002368E31A1A880A2A02D95989002904D153
:1014800000203D6004BC9046F0BD615C1129F7D19D
:101490000C2AF5D99B89E418002BF1D023689C46CF
:1014A00064442368E31A1A88042AE9D99888002832
:1014B000E6D0241823689C4664442368082B21D86E
:1014C000002B1DD062682A60012B19D0A2686A60C7
:1014D000022B15D0E268AA60032B11D02269EA60C2
:1014E000042B0DD062692A61052B09D0A2696A61BB
:1014F000062B05D0E269AA61072B01D0226AEA61B6
:101500002B62BDE7054A06494046FFF7BBFD33683D
:10151000300029005B6898470120B3E7700B061084
:10152000780B061070B504001D001368100004212C
:1015300004221B689847002123680160E21A13887F
:101540000A2B19D95689002E16D0A65D092E13D163
:101550000C2B11D99389E418002B0DD023680A1C99
:101560009C4664442368E31A1E88042E03D99B8892
:10157000002B00D0E25802602860002070BDC046F9
:10158000F8B5CE4647461E000023040080B5336000
:101590000F00914608F004FD012123680500E31ABD
:1015A0001A888846082A02D91989002912D1832D60
:1015B00014D8202D19D03B6842461B6829003800FA
:1015C0009847030030600020002B28D00CBC9046C8
:1015D0009946F8BD61588846832DEAD92A004846C5
:1015E0001449FFF74FFD0120F0E7062A11D9D888EA
:1015F00000280ED02418236842469C463B68644469
:101600005B683800211D9847306043425841C0B2A2
:10161000DCE748460849FFF735FD0120D6E7074BD0
:10162000AD005A59484643460549FFF72BFD0120B6
:10163000CCE7C046BC0B0610480C06107C12061006
:10164000100C0610F8B515001C000022002306003F
:101650000F000FF047FD002803D000232B6023600C
:10166000F8BD22003000390015F0F2FD0022124BC7
:101670000FF0F5FC0FF04EFE0FF0BEFD002918DC58
:1016800013D080231B06984207D023681F3302DA49
:101690000023002023602860E2E70029F5D18020A4
:1016A0002368C00501332360F0E780231B069842BE
:1016B000E7D914F01FFFC0460000E041F0B5C64670
:1016C0000400802000B582B0009201930A9B0006BE
:1016D0009846089B0D00D8400FF03AFD009A019BF8
:1016E00006000F00200029000FF0B9FC02000B00DB
:1016F000300039000FF0B3FC2A4A2B4B04000D00D8
:101700000FF00EFD061E17D1002220002900274BE6
:101710000FF006FD00282ED0002200232000290013
:101720000FF0E0FC002809D0099B1E6043461E60B4
:1017300002B004BC9046F0BD1A4C1B4D424620003E
:10174000290015F085FD0022194B0FF088FC0FF0E1
:10175000E1FD0FF051FD00290DDC1ED080231B069A
:10176000984210D043461B681A001F3205DB099AC5
:101770001060002BDCDA14F0BDFE0023424613603B
:10178000099A1360D4E70029ECD1434642468020F1
:101790001B68C00501331360E6E780231B069842EF
:1017A000DCD9E8E70000C0FFFFFFDF410000F03FA9
:1017B0000000E041F8B5CE460123814647461800B7
:1017C00098464B46984080B5013816000F000FF040
:1017D000BFFC4B46F21A20235B4204000D00D318D5
:1017E00026D4414699400126300090400FF0F8FC85
:1017F0000B000200290020000FF031FC20235B4287
:1018000004000D00FB1818D4310099400120B840A5
:101810000FF0E6FC02000B00200029000FF001FC95
:101820000FF0CAFD0FF0ACFC0CBC90469946F8BD19
:10183000202341469B1AD940D5E720233100DB1BEA
:10184000D940E3E70B6810B502CB002A0EDB8A42D1
:101850000CDA9200D158002908DB8368002B02D0F3
:101860004801181810BD036D9847FBE70020F9E701
:101870004B6810B502CB002A0EDB91420CDD9200C2
:10188000D158002908DB8368002B02D048011818C2
:1018900010BD036D9847FBE70020F9E70B6810B512
:1018A00002CB002A0EDB8A420CDA9200D1580029C2
:1018B00008DB8368002B02D04801181810BD036DA7
:1018C0009847FBE70020F9E7F0B5C64600B5147F5E
:1018D0001D0082B0032C38D0092C1ED0072C0FD14C
:1018E000354E364C9368D768984601291DD0032998
:1018F00033D002294ED0089B2C6000201E6008E0E7
:101900002F4B304A0093762344692F49FF33A04779
:10191000012002B004BC9046F0BD802493687F266D
:101920009846D76864420129E1D1191C002010F0C3
:101930001CF910F015FA10F099F9C719A74207DB46
:10194000089B2F601E600020E3E7FF260024C9E704
:101950002700089B2F601E60F5E7191C002010F07F
:1019600004F910F0FDF910F081F9C019A04200DA75
:10197000200041462860154810F0F7F810F0F0F903
:1019800010F074F9C719B74200DD3700089B00203A
:101990001F60BEE7191C0E4810F0E7F810F0E0F9E0
:1019A00010F064F9C019A04200DA20002860FE207F
:1019B00041468005E0E7C046FF7F00000080FFFF52
:1019C0004015061090140610E81406100000C040E0
:1019D000000080BFF0B557464E464546DE46E0B5AE
:1019E0000F7804000D0016009A468FB0012F14D016
:1019F00001230393BE4B02970193BE4BBE4A009353
:101A00004569D123BD49A847012738000FB03CBC28
:101A100090469946A246AB46F0BD1378012B0BD0F9
:101A20000293B34B03970193B54BB34A00934569B7
:101A3000D323B249A847E8E75368002B00D1E7E079
:101A40001A689046002A00D1CCE01168012922DDF5
:101A5000FD202A7F073A024208D0AA4B20000093BB
:101A60006569E323A44AA849A847CEE7327F092A3B
:101A700000D0BFE0209A8A4200D1D1E0A34B03926C
:101A80000193A34B029100932000E62365699A4AD3
:101A90009A49A847B9E7189BA8689F68209B002B24
:101AA00030DD10F01BF904900591381C10F016F988
:101AB0000DAB9B465A460CABA946A34600274446AD
:101AC0001D00B046160006900791606810F006F9F8
:101AD000049A059B0FF0C3FA069A079B0FF0A1FA30
:101AE00033002A00FFF7AEFD1E9A0C99BB00D150BF
:101AF0001F9A0D990137D150209B9F42E5DB5C4630
:101B00004D4646462B7F032B05D0092B5FD0072B74
:101B10005DD0002779E7AB689846B368994653468D
:101B2000002B2DD0404610F0D9F8060048460F0093
:101B300010F0D4F802000B00300039000FF08FFADB
:101B40005346060098680F0010F0C8F802000B001A
:101B5000300039000FF053FA189B070098684E00C8
:101B600010F0BCF8760802000B00380031000FF0CE
:101B700058FA684A684B0FF0C3FA002800D1A0E079
:101B80004946404610F005F80021061C10F03EF8CA
:101B9000002800D1A0E0301C10F0A0F8189B06002F
:101BA00098680F0010F09AF802000B00300039001E
:101BB0000FF037FA1A9A0DABFFF744FD0D9B1B9AF5
:101BC0005B4213602B7F092B01D0032B9FD1199B04
:101BD000200019781D9B189A00931C9BFFF774FE38
:101BE000070012E74D4B444A00934569DF234649FD
:101BF000A8470AE709230393494B02920193494BF3
:101C0000200000936569E5233B4A3C49A847FCE670
:101C1000454B394A00934569DE233B49A847F4E622
:101C200072699B6894469B0063445B68209A9A4261
:101C30000CD003933D4B02920193344B2000009350
:101C40006569E7232C4A2D49A847DEE64346A86884
:101C50000433049310F042F8189B08900991986897
:101C600010F03CF8002398460DAB9B460CAB0027C8
:101C70009946069007910A940B964446D846AB467F
:101C8000089D099E049B0134D85910F027F82A00BA
:101C900033000FF0E4F9069A079B0FF0C2F94346B0
:101CA0004A46FFF7CFFC1E9B0C9ADA511F9B0D9AF8
:101CB000DA51209B0437A342E4DC5D460A9C0B9E6C
:101CC00020E71B4B20000093362365690A4A0E4922
:101CD000FF33A847012798E6164B20000093A12365
:101CE0006569054A08495B00A84701278DE6C0469B
:101CF000641506108015061090140610481506107D
:101D00009C150610E8150610E8140610401606107B
:101D1000501606107B14AE47E17A943FCC1506109E
:101D20002416061030160610B81506107416061084
:101D3000001506102415061010B53821836B98473E
:101D400010BDC046F0B545465746DE464E46E0B5A6
:101D5000FFB01D00899B140009930A694B698046F6
:101D6000889F7B937A92012B02D1012A00D115E240
:101D70001BB2159313B216930422A35E20699946F1
:101D80000022A35E22909846E36AA0692693236B03
:101D900023900826885F2793636A24900420095EB5
:101DA0002893A36A25916EA82900299305F0E8FAE3
:101DB0002B68390068A82A9305F0E2FA099C3B6871
:101DC000210062A82B9305F0DBFA23688A995CA8AE
:101DD000179305F0D5FA8A9B002B01D01B688A93D4
:101DE0006E9A68995C9B052A00DDC9E06F9C5D983E
:101DF000052B00DD00681194844200DD1190052A56
:101E000000DCAEE16F98C068052900DC9EE1699CAA
:101E1000E5681095854200DD10902468052B00DCF4
:101E20009DE15D98C0681494844200DD1490052AF9
:101E300000DC98E16F9A506892682C902D920529E9
:101E400000DC97E1699A5168926818911992052B04
:101E500000DC96E15D9B5A689B681A921B93119B6C
:101E6000002B00DC58E2002A00DC55E21B9B002B13
:101E700000DC16E1149B002B00DC12E100239A46E3
:101E80004B465B422E934346D3465B422F932E9B99
:101E9000D9460B9300230A932F9BCB46099300232B
:101EA00098460023DA469946C346189B002B6ADD04
:101EB000719B729A1900514315984C4648431E90E5
:101EC00050467099002541430B98844661444B432A
:101ED00009998C46634453430C936C9B19001D93E2
:101EE0006B9B4B4319001C936A9B63434B431699AE
:101EF000514300221F911999002900DC15E10C992A
:101F00000E93884600218C461900099C63460F9168
:101F10000FE016991D9E8C461F9964448C46E04440
:101F2000B4460E99013361440E911999994200D13A
:101F3000FAE0002CEDDB2D99A142EADD0028E8DB78
:101F40002C998842E5DA10990029E2DD0E9F2A9E3D
:101F5000BC46464421962B9E0021664420960F9E47
:101F6000B446219E7756229EBF1B209E7656013195
:101F70007E439219109E8E42F3D161460F91C8E7BD
:101F80006F98046833E70022179B002B00D1C2E052
:101F900019004B469B00C9588C460C916244289905
:101FA000C8582999CF58FB43DB173B40002F00DC72
:101FB000B4E00025002400279A401600904200D18A
:101FC00091E0D317C1170FF0ADFD02000B1E00DB2F
:101FD0007FE00121D54849420C900D910C980D9954
:101FE00080185941CB175B005B08129300231393B1
:101FF000129A139B801859414A00C00F02430121D5
:10200000D3170B401440ED1853465E9959430A9B71
:102010009C465F9B61445943609B594459438A9B4A
:102020004B441E000123AC4200DC002301203A4156
:102030005B4203409A18239B9C46269B62449A422B
:1020400000DA1A00279B9A4200DD1A0001239C4601
:10205000149BE14472544B4500D026E70123D84637
:102060009C46259AE0449446099BD34663440993D1
:102070001B9B434500D014E724990B9A8C460A9B7E
:1020800062440B921A9A0133D9460A939A4200D0BD
:1020900002E70123CB469C46119BE3445B4500DDF0
:1020A000F5E65C9B052B00DD36E1629B052B00DD30
:1020B00032E1689B052B00DD2EE16E9B052B00DDD8
:1020C0002AE100207FB03CBC90469946A246AB4630
:1020D000F0BD80200021C00512184B4111005B00AB
:1020E000CA0F1A438BE7D1170B0010000FF01AFD2F
:1020F000020080200B000021C0050C900D91002BE8
:1021000000DA38E1802109068E4200D066E76400DB
:10211000874A640878E74B469B0040E701247F42EA
:10212000BC40013C651047E70F9B15991E9C8C46EF
:102130006044A4460C99013561440C911C998C466D
:10214000189963448D4200D0D5E61DE76C9C10942D
:10215000844200DD1090699C052B00DD61E66098EB
:1021600061E6729850E6709A2C92719A2D92052928
:1021700000DD67E66A9A18926B9A1992052B00DDCA
:1021800068E65E9B1A935F9B1B93119B002B00DC00
:102190008BE71A9B002B00DD68E686E723694A6817
:1021A0005B427493A36944A875938B683900779355
:1021B00023687692789363687993E36A7C93236BC0
:1021C0007D93636A3093A36A319305F0D9F82900AF
:1021D0004AA805F0D5F88A9950A805F0D1F80999D0
:1021E00056A805F0CDF84A9B9946449B9C46509BC7
:1021F0000A934B46052B00DCB6E04B9B1A680A9B02
:10220000052B00DCAEE0519B1B689A4200DD1A00F2
:102210004B46052B00DCA3E04B9BDB6861460529A0
:1022200000DC98E045998A46C968994200DDA0E043
:1022300053461B680A98052800DC89E05198C0685D
:102240008246534500DD53464E463492052E79DDD5
:102250004B988146406835904846806881464E4696
:10226000369638AEB246664637913893052E61DD14
:102270004598844666465046766846606046806863
:1022800084465646F1603CA960468946B06001210B
:10229000484640920A9A3C914160816040A98B4631
:1022A000C360052A3ADD519A5068926841905946B8
:1022B000CB6000238A60616B32933393002904DB87
:1022C000434640465B6C9847329009998A982B6840
:1022D0003A680968002801D000688A908A980491B9
:1022E0000690494658460292524605900391019243
:1022F000009330AA34AB74A932A808F057F8569B63
:10230000052B09DC509B052B06DC4A9B052B03DCC7
:10231000449B052B00DCD4E614F0ECF8529A0A92A8
:102320000A000A995160539AC1E7C046010000C0F3
:10233000FFFFFF7F46980B9050460B9E46604798E4
:1023400084469EE74C980B9035904D98814686E7E1
:102350005498824675E74899994207DC459B69E79E
:102360004E9B5BE7519B50E74B9A48E71900459B12
:1023700060E719005CE70121024849420C900D9189
:10238000C0E6C046010000C0F0B5DE464E465746E6
:102390004546E0B5CB680E0098460B68F9B0596821
:1023A000436D0700984733680400996838007B6DD7
:1023B00098470022336891461A680590032A04D191
:1023C000D96838007B6D9847814673683800596832
:1023D0007B6D9847237A027A0500934214D00293CA
:1023E000C54B03920193C54B38000093D3237C69FE
:1023F000C34AC4495B00A047012079B03CBC904669
:102400009946A246AB46F0BD059A107A984205D08F
:1024100038007B69BC4998470120EEE7B268032881
:1024200000D179E109280BD0012814D07D69FEF78D
:102430001DFE237A0200B5493800A8470120DCE7D9
:102440004B460193059B41460093380023000295BB
:10245000FFF778FCD1E743461B7B012B00D193E2C9
:10246000032B01D100F01EFC022B01D100F020FC57
:10247000A74B1693A74B15930021535E54A89A4679
:102480000423D35E21009B46434604229B5E219396
:10249000434608229B5E2293434610229B5E239371
:1024A000434614229B5E249304F06AFF2368059C34
:1024B0004EA82100269304F063FF2368494648A8EC
:1024C000279304F05DFF4B461B68290042A8289320
:1024D00004F056FF2B6800213CA8299304F050FF1C
:1024E0004E9A549B3B92429A3A933992052B00DCC8
:1024F000D6E3559B1A68399B052B00DCCEE3439B42
:102500001B6835929A4200DD35933A9B052B00DC1F
:10251000B9E3559BDB683B9A052A00DCACE34F9A94
:10252000D1681C91994200DD1C931668399B052BDC
:1025300000DC9FE3439BDB689E4200DD1E003A9B6C
:10254000052B00DC8FE3559B5A689B682A922B93DE
:102550003B9B052B00DC72E34F9B5A689B681392F0
:102560001493399B052B00DC64E3439B5A689B68FA
:102570001D921E93359B002B00DC42E35098469F32
:1025800084461B9752981D9F25905699579B589AA1
:10259000519D4498459C002F00DC32E31E9F002F84
:1025A00000DC2EE3002E00DC2BE35943514336912F
:1025B000594660431B9F59434743504637971B9FDB
:1025C00049426743091A51432F9767461F9125993E
:1025D0006F430800784353431890B000229C179033
:1025E00024985C435843239B2E9453432D931C9B68
:1025F000219C9B002C930023209334935B465B42E9
:1026000038935346544369435B423094329031913E
:102610003393389B0F931F9B0C93209B0E930023A7
:102620001293339B07930C9B08930E9B09930023F3
:1026300010930026299A00279446B246099B9B00D6
:1026400063441193139B002B00DCF1E253460A9381
:10265000089B00260B930F9BB946984600234546DE
:102660009B46149B002B00DC5BE20A9B079F0693B2
:102670000B9B05930023984613E001239C46239B64
:10268000E0449C462D9A67449446059B259A6344F2
:1026900094460593069B63440693149B434500D1DF
:1026A0003FE2002FE9DB2B9BBB42E6DD002DE4DBA4
:1026B0002A9BAB42E1DD1C9B002BDEDD269A059BAD
:1026C0009446279A9B006344944600241A93069BE1
:1026D0009B0063441993199B19591A9B18590FF0C1
:1026E00058FA011C301C0FF03DFA2C9B0434061CD8
:1026F0009C42F0D1C1E7C0461417061024170610FB
:10270000B41606104815061030170610C01706102C
:10271000FFFF7F7FFFFF7FFF1369176A22935369D3
:1027200072A82393936924930023D65E0421535EF9
:102730009A46434604215B5E2593434608215B5E2F
:102740002693434610215B5E1093434614215B5E43
:1027500021001193D3699B467B421293D36A27933E
:10276000136B289304F00CFE2368059C6CA82100D1
:10277000299304F005FE2368494666A82A9304F0CD
:10278000FFFD4B461B68290060A82B9304F0F8FD61
:102790002B6800215AA82C9304F0F2FD729A6C99D0
:1027A000609B052A00DDECE0739C6198052B00DD41
:1027B00000683394844200DD3390052A00DC6BE22C
:1027C0007398C068052900DC5FE26D9CE5680F9591
:1027D000854200DD0F902468052B00DC48E26198FB
:1027E000C0681F94844200DD1F90052A00DC35E29A
:1027F000739A506892682D902E92052900DC28E289
:102800006D9A5168926813911492052B00DC1BE2BB
:10281000619B5A689B6820922193339B002B00DCBC
:1028200033E1FB43DB171F400123BB40013B5A1040
:1028300030935B005B083193209B2F971592002B00
:1028400000DC22E1219B002B00DC1EE11F9B002B02
:1028500000DC1AE100230E9353465B42349373422B
:1028600032935B46DB179A46D946349BCB460A9394
:102870000023D1469846329B5E46059300239A4634
:10288000129BD346DB43DB171D93129B1D9A002737
:1028900013401A934B46DA46B146C3463E001F002A
:1028A000139B002B75DD759B0A9C1900A446769A34
:1028B000119851434843749918900E98B846414373
:1028C00061444B43059900208C466344534306936F
:1028D000709B0996190017936F9B4B431900169331
:1028E0006E9B73434B4310995143002219910B92F5
:1028F000149A002A00DCFFE0069A0026059F079341
:10290000089211E0109A1999944667448C46089AE7
:10291000179962448C460892079A013662440792DE
:10292000149AB24200D1E7E0002FEBDB2E9ABA42B4
:10293000E8DD002CE6DB2D9A9442E3DA0F9A002AB8
:10294000E0DD089D2999AC46079D6144AC461C9189
:102950001E932A99099B614400229C461B911C9955
:10296000239B8D5C22996D1A1B99895C0132C91ACF
:1029700069430F9B40189A42F1D162461E9B09920F
:10298000C0E77398046810E7CF4B169300231593A4
:1029900072E500202B9A002A02D0B300D358C01849
:1029A0001A9B98400400814500D184E04A463B00D0
:1029B000C1170FF0B7F802000B1E00DB92E00121F7
:1029C000C248494280185941CB175B005B080C9301
:1029D00000230D930C9B0D9CC01861414A00C00F51
:1029E00002430123D4171C40159B309D9C46154083
:1029F00064440E99629B01204B4363995B444B43B3
:102A0000649953444B432C998919A54200DC00205A
:102A10000124404220402F9C224182182498844661
:102A200027986244824200DA02002898824200DD40
:102A30000200CA541F9B01369E4200D030E701239A
:102A4000D8469C46D346259AE3449446059B4E4679
:102A500063440593219BB9465B4500D015E70123EC
:102A60009C46269AE04494460A9BB34663440A93E4
:102A7000209B984500D0FEE60E9B339A0133CA4650
:102A80000E93D946934200D0EFE65A9B052B00DD0A
:102A9000C7E0609B052B00DDC3E0669B052B00DDD6
:102AA000BFE06C9B052B00DDBBE0729B052B00DDBE
:102AB000B7E00020A1E44A463B00484639000FF049
:102AC00031F8020080200B00C0050021002B00DA45
:102AD000F5E080252D06AC4200D073E7159C319DB2
:102AE0007B4A86E780200021C00512184B41110067
:102AF0005B00CA0F1A4374E71199189D8C46644411
:102B0000AC4606990B9A61440691169901328C469F
:102B100013990B9263448A4200D0E9E64746099E26
:102B200038E701239C46249BE3449C46329A654443
:102B300094460B9B319A634494460B930A9B6344DF
:102B40000A93139B9B4500D08BE54F46289B002B97
:102B50006CD0D859311C0FF005F81599041C0FF0F2
:102B60004FF8002800D0159C1699201C0FF056F83D
:102B7000119B002857D1DC51189B04379C46179BAA
:102B8000E244BB4200D05DE51B99099A8C4630991E
:102B900062448C4609922199089A109B62448C46A3
:102BA0000892079A0133624407921E9A10939A4240
:102BB00000D03EE522990F9A8C462F9962448C46AC
:102BC0000F922E990E9A129B62448C460E920C9A8A
:102BD000013362440C921D9A1293934200D020E577
:102BE0003799209A8C46369962448C4620921F9AD7
:102BF000349B62441F92359A01333493934200D040
:102C000007E53C9B052B0CDC399B052B09DC489B1D
:102C1000052B06DC3B9B052B03DC3A9B052B00DCDC
:102C200047E713F067FC169ADA51A5E7002091E711
:102C300000268BE7449B1D93459B1E939AE4509B73
:102C40001393519B14938CE4629B2093639B219379
:102C5000E3E56E9A13926F9A1492D6E5749A2D92C8
:102C6000759A2E92C9E5569B2A93579B2B936FE436
:102C70006498B6E5469B5FE4529A1C929A4200DD46
:102C80001C934F9E52E4589B45E4709C0F948442E1
:102C900000DD0F906D9C9FE5769893E5439B30E4B3
:102CA000559A28E40B4B169300231593FFF7E4FB8A
:102CB000FE239B051693084B1593FFF7DDFB0121BF
:102CC0000248494205E7C046FFFF7F7F010000C080
:102CD000FFFFFF7F0000C040000080BFF0B5DE4670
:102CE000574645464E46E0B5CB68B3B000220400D7
:102CF0000D009A468E68FEF7A5FD01222900070007
:102D00002000FEF79FFD0022804629002000FEF7EC
:102D1000AFFD8346002F00D10AE1796904C91C92F6
:102D2000052A00DD5DE192001DA80FF095F85B46D5
:102D3000002B00D101E15B69190004C99946229278
:102D4000052A00DD4DE1920023A80FF085F8239AB3
:102D50001D9B934200DD1300109318934B467A6934
:102D60009B68D168926819931192269A4B469446B3
:102D700014924246DB68526912910A9391681A9341
:102D800063461591D1681B93536820989B00994620
:102D900013901691179019002000A36B9847A36B0E
:102DA00070624946200098472B68B0621B68023B5E
:102DB000012B0FD98C4B20000093656957238B4A58
:102DC0008B49A847012033B03CBC90469946A246A7
:102DD000AB46F0BD6B681B68012B0ED0012202933D
:102DE000844B20000193844B039200936569582320
:102DF0007E4A8249A8470120E5E752461178926849
:102E0000129B914652460A93119B52680B93159B55
:102E10000C929C465346524616981B6901385843FB
:102E2000431C52690D93012900D193E0022900D07F
:102E300087E06346013B53430B9A01334A44D01A5F
:102E400049460F930DF072FE431E0C990E930A9B98
:102E50008C4618000D9B6044C01A0DF067FE431E9F
:102E60004A460E98397F50430F9A94460B9A604415
:102E7000821AD043C01702400C98584303000D98A3
:102E800084460A9863441B1AD843C017034058105D
:102E9000306050107060012003400240B360F26067
:102EA000012900D194E0002229002000FEF7CAFC8D
:102EB000012229000A902000FEF7C4FC022281466C
:102EC00029002000FEF7EAFC002229000B902000D8
:102ED000FEF7CEFC4A4653690A995A6833000892B5
:102EE000B26A30330792726A0593043B04930C3B39
:102EF0000393043B029353460C33069201930090D4
:102F00004A4620000B9BFEF765FD002800D05AE7DB
:102F10004246D268397FFB6872615A46D268336193
:102F2000B26109292ED001235B42002073634AE776
:102F30005B461C97002B00D0FDE622935B69994607
:102F400005E76346013B534301330F9301235B4283
:102F50000E9385E76346013B534301330F930B9B6D
:102F600049464B44180001380DF0E0FD431E0C9912
:102F70000E930A9B8C461800604401380DF0D6FD74
:102F8000431E6DE75B42289353469B6829922B931F
:102F900053465B6810A92A9353465B6914AA2F9382
:102FA00053461B6928A80A932E9373682D933368A0
:102FB0002C93F36A3093336B319318AB07F04CFAD0
:102FC000011EB0DD32002000236C34329847FAE64F
:102FD000FB6833614346DB6873615B46DB68B36162
:102FE000A1E713F087FAC046DC170610B4160610E6
:102FF000E8140610CC1A0610001806104815061022
:10300000020030B5034B32CB32C232CB32C212CBCC
:1030100012C230BD1418061010B53821836B9847C2
:1030200010BDC046F0B545465746DE464E46E0B5B3
:10303000DD4C1D00A5448B9B140009934A698B69E4
:1030400080468A9F7D937C92012B02D1012A00D178
:10305000FFE112B21BB2149215930C228B5E002674
:10306000A05F1C93236980460426A05F2693A36972
:1030700081460426885F2793636A24900826885F28
:103080002893A36A290025906FA8299304F078F962
:103090002B68390069A82A9304F072F9099C3B68EF
:1030A000210063A82B9304F06BF923688C995DA829
:1030B000169304F065F98C9B002B01D01B688C9350
:1030C0006F9A69995D9B052A00DD7AE1709C5E9894
:1030D000052B00DD00681094844200DD1090052A65
:1030E00000DCAFE1709A50682C909068D2682D9007
:1030F0001B92052900DCA0E16A9A51689268179139
:103100001892052B00DC8CE15E9B5A689B68199233
:103110001A93109B002B00DC4CE2002A00DC49E2F1
:103120001A9B002B00DC2DE11B9B002B00DC29E10E
:103130001C9B002B00DC25E100239A464B465B429A
:103140002F934346D1465B422E932F9BCB460D9344
:1031500000230A932E9B099300230C930023002540
:103160000B93289AAB0092469A441C9BD0469C46EF
:10317000AC4463469446AA4622939B0063441E9344
:10318000179B002B00DC4AE1729B73991A004A439B
:1031900015986C9C504321905846719A00254243E3
:1031A0000D98844662445343099A94460B9A6344AB
:1031B00094464B432A9A634494466D9A634454431D
:1031C00020922B9A9C4652441600149A1F944A430C
:1031D0001D920022914642460E9232002E00189B0C
:1031E000002B2CDD00282ADB002311930E9B644664
:1031F000170098460999239400290DDB2D9B8B42DB
:103200000ADD2C9B834207DD0025269B6557ED1ABE
:103210000023FB566B439944149D119BAC461D9DA6
:103220006144AC46209D6444AC46189D0133119323
:1032300067449D42E0D143460E93239B9C46159BD9
:1032400001369846219B404498461F9BC4449846AB
:10325000179B42449E42C2D10E9B4A469846169BFB
:10326000002B00D1D8E0190053469B00C9588C466A
:103270000E916244414608682999CF58FB43DB17F9
:103280003B40002F00DCC1E00025002400279A40CD
:103290001600904200D1A1E0D317C1170EF042FCF6
:1032A00002000B1E00DB95E00121404849420E90D0
:1032B0000F910E980F9912184B41D91749004908E0
:1032C0001291002113911298139912184B41110079
:1032D000CA0F01215B001A43D3170B401440ED18AD
:1032E0005B465F9959430A9B9C46609B61445943E6
:1032F0000C9B9C46619B614459438C9B53441E002C
:103300000123AC4200DC002301203A415B42034030
:103310009A18279B9C4662447F2A55DD7F22012311
:103320009C460333E2449C461E9BE0447254434552
:1033300000D025E70B9B1B9A0133229D0B939A42E9
:1033400000D00EE72499099A8C460C9B624409929E
:103350001A9A01330C93934200D0FFE625990D9AF7
:103360008C460A9B62440D92199A01330A93934248
:1033700000D0EFE60123D9469C46109BE1444B4523
:1033800000DDE2E65D9B052B00DD13E1639B052B71
:1033900000DD0FE1699B052B00DD0BE16F9B052B29
:1033A00000DD07E104E0C046FCFDFFFF010000C0B6
:1033B00081239B009D443CBC90469946A246AB4667
:1033C000F0BD7098046882E613008033A7DA80228B
:1033D0005242A4E780200021C00576E7D1170B00F8
:1033E00010000EF09FFB020080200B000021C005A2
:1033F0000E900F91002B00DAFCE0802109068E422E
:1034000000D056E764007E4A640869E701247F42E1
:10341000BC40013C65103AE753469B002AE7002276
:103420001DE75F9B1993609B1A93109B002BADDDEA
:10343000199B002B00DD73E6A8E76B9A17926C9A34
:1034400018925EE6719A2C92729A2D92739A1B9240
:103450004FE6236945A85B427593A36976938B6811
:1034600079934B68789363687B9323687A9380237E
:103470005B427E93FF337F93CB6839000A93779347
:10348000636A3193A36A329303F07AFF29004BA851
:1034900003F076FF8C9951A803F072FF099957A8A1
:1034A00003F06EFF4B9B9946052B00DCA0E04C9B84
:1034B0001A68519B0A93052B00DC97E0529B1B680E
:1034C0009A4200DD1A00459B9C46052B00DC8AE0F1
:1034D0004698C3680A99052900DC81E0529EF66887
:1034E000B246534500DD53464E463592052E70DDFB
:1034F0004C9EB146766836964E46B66837964E462E
:10350000F668B1464E4638966646052E5ADD39AE07
:10351000B3460668416839965E46806871605E46CB
:10352000B0603DA88146F36001204E4641920A9A60
:103530003D907060B06041A88246F360052A3BDD93
:103540000100529A5068926848605146CB6000234F
:103550008A60616B33933493002904DB4346404611
:103560005B6C9847339009998C982B683A68096886
:10357000002801D000688C908C98049106904946F0
:10358000504602925A46059003910192009331AA47
:1035900035AB75A933A808F021FB579B052B09DC37
:1035A000519B052B06DC4B9B052B03DC459B052B18
:1035B00000DCFDE612F09EFF539A0A920A99549A93
:1035C0004160C2E7479939903A9139A98B464898AA
:1035D000A5E74D9E36964E9E37964F9EB14691E793
:1035E000559EB2467DE7499B469873E7529B67E735
:1035F0004C9A5EE70121034849420E900F91FCE688
:10360000FFFFFF7F010000C0F0B545465746DE468C
:103610004E46E0B51E000B69F1B02C934B691700C4
:103620002D938B697A9C2E9300228B5E9B460422FD
:103630008B5E9A460422835E2F930822835E30932A
:103640001422835E1825425F0C25405F0D6A1D9091
:10365000C86A20933190086B21923290C869694200
:1036600080461F91012B02D1012A00D1F7E13900D8
:103670006AA803F085FE3B68310064A83C9303F020
:103680007FFE336821005EA83D9303F079FE236836
:103690007B9958A83E9303F073FE7B9B002B01D0CF
:1036A0001B687B936A9A6499589B052A00DD8BE11D
:1036B0006B9C5998052B00DD00681E94844200DD48
:1036C0001E90052A00DCC3E16B9A50683F90906819
:1036D000D26840902B92052900DCB4E1659A5168CC
:1036E000926826912792052B00DC93E1599B5A683A
:1036F0009B6829922A931E9B002B00DC24E2EB435B
:10370000DB171D400123AB40013B5A1041935B0086
:103710005B084293299B43952892002B00DC13E21F
:103720002A9B002B00DC38E12B9B002B00DC34E1D2
:103730001D9B002B00DC30E153465B4245935B460A
:103740005B42449343460026DB179B46C146B24684
:10375000459B4E4619930023D046D9461893449B67
:1037600035009B4600239A464B46D946C346D04671
:103770009A4600231A9317931F9B5646DB43AA468B
:10378000DB1738931F9B389A1A9F134034930023FA
:103790005446BA462293269B002B00DC38E16D9BF1
:1037A0006E9A190051432198679D484337905846B7
:1037B0006C993994414319980027844661444B43DE
:1037C00017994B448C4653433C9963448C46689903
:1037D00063444D4336913D99359551448C4620992B
:1037E00051431A0033910100002063460400100089
:1037F000279A002A32DD002930DB00224D461C9337
:103800001B9023923A933B90002D10DB409AAA42E2
:103810000DDD3F9A8A420ADD1B9A2C9B1278D21A40
:1038200010001C9B1A782D9BD21A4243A418209B8F
:10383000239A9C461B9B65441800339B01329C468F
:103840001C9B60441B901800369B23929C46279B30
:1038500060441C909342D7D13A9B3B98219A013700
:103860009446379A61449446359A60449446269A21
:1038700063449742BCD12000399C3E9A002A03D071
:1038800053469B00D358C018349B9840050084428F
:1038900000D1A6E022003300C1170EF043F9020068
:1038A0000B1E00DB93E00121B248494280185941C8
:1038B000CB175B005B08249300232593249A259B58
:1038C000801859414A00C00F02430123D117194003
:1038D000289B41989C46104061445B465A9D5D433D
:1038E000189B9C465B9B65445D435C9B45445D43E4
:1038F0007B9B53441F000123884200DC00230121ED
:103900005B420B4043990A419B182E9A9446319A88
:103910006344934200DA1300329A934200DD1300AD
:10392000012294467B55229B1D9A01332293E24447
:103930009A4200DD2FE711008C461A9A179B6244C9
:103940001A922B9A0133A24617939A4200D019E794
:1039500001239C462F9BE0449C462A9B5546E1440C
:10396000B246434500D004E73099199A8C46189B1B
:1039700062441992299A01332E00D846D1461893F1
:103980009A4200D0EBE60123C2469C461E9BE244CD
:10399000CB46B146534500DDDAE6589B052B00DDEA
:1039A000D2E05E9B052B00DDCEE0649B052B00DDA5
:1039B000CAE06A9B052B00DDC6E071B03CBC9046B6
:1039C0009946A246AB46F0BD6B98046871E680202C
:1039D0000021C00512184B4111005B00CA0F1A43A9
:1039E00073E722003300200031000EF09BF8020044
:1039F00080200B00C0050021002B00DAB6E08027F4
:103A00003F06BD4200D051E7289942985A4A64E7E0
:103A1000002032E75A9B29935B9B2A931E9B002B25
:103A2000BFDDEB43DB171D400123AB40013B5A10C8
:103A300041935B005B084293299B43952892002B9E
:103A400000DD6DE6ADE7669A2692679A27924AE610
:103A50006C9A3F926D9A40926E9A2B923BE631009F
:103A600046A803F08DFC469B052B7ADD479B5A68E0
:103A70009B681892199339004CA803F081FC4C9B69
:103A8000052B68DD4D9B5A689D68DB6817921A9379
:103A90007B9952A803F074FC529B052B56DD539B77
:103AA0005A689B6891469C465C226B469B181A8814
:103AB000A9B26B4668255B191B8835681793642685
:103AC0006B469B1938681E8860276B46DB191F8878
:103AD0007B9B2468002B01D01B687B934346149387
:103AE0001F9B0A941393329B01241293319B0994D8
:103AF00011934B469BB2109363469BB20F937B9BF3
:103B000008940E932E9B02970D932D9B01965B427A
:103B10000C932C9B00955B420B93309B07932F9B40
:103B20000693534605935B4604931D9B0393179B93
:103B300007F0ACFC529B052B06DC4C9B052B03DCF1
:103B4000469B052B00DC38E712F0D4FC549B9946C9
:103B5000559B9C46A8E74E9B4F9D1793509B1A93ED
:103B600096E7489B1893499B199384E701210148E4
:103B7000494244E7010000C0FFFFFF7FF0B5DE4689
:103B8000574645464E46E0B58B680E0098464B6852
:103B9000D5B0CF685968436D0500984733680F90DA
:103BA000596828006B6D98473368040099682800AD
:103BB0006B6D9847336882461A680026032A04D141
:103BC000D96828006B6D98470600207A032814D026
:103BD000092800D1EEE101281CD06E69FDF746FAF4
:103BE000237A02000A492800B047012055B03CBCA6
:103BF00090469946A246AB46F0BD0F9B220001932A
:103C00004146534638000096FFF7FEFC0020EDE7E2
:103C1000C01706103B7C012B00D1D8E1032B00D14B
:103C200014E2022B00D116E2E04B1C93E04B1B93F5
:103C3000434600229B5E21009946434604229B5E38
:103C40003CA898460422BB5E22930822BB5E2393C5
:103C50001422BB5E24931822BB5E25930C22BB5E0C
:103C6000209303F08DFB2368514642A8299303F06B
:103C700087FB53461B68310048A82A9303F080FB5A
:103C80000F9C336821004EA82B9303F079FB002C86
:103C900001D023680F93429A3C9B3B924E9A3A93F1
:103CA0003992052B00DCCFE13D9B1A68399B052B2F
:103CB00000DCC7E14F9B1B681F929A4200DD1F93F7
:103CC0003A9B052B00DCB6E13D9B5A682C929A6822
:103CD000DB682D9221933B9B052B00DC8EE1439BFF
:103CE0005A689B6819921A93399B052B00DC8DE169
:103CF0004F9B59689B68279128931F9B002B00DCE2
:103D000051E13E9B529F9C46509E51983F9B409A4A
:103D1000459D469C2697002900DC44E1289900290E
:103D200000DC40E12199002900DC2FE120990029E5
:103D300000DC2BE147467F423697269F46433900F9
:103D40007143379120994E46109161465943514332
:103D50003891494649422F91414659434942891B6E
:103D60005143534312912399654359433591229905
:103D7000474351433391259934974B439B003093EC
:103D8000AB002E93249B5A4393003193A3003293AC
:103D9000002311931D93129B0E93119B0D93109B67
:103DA0000C93369B0B93002315930E9B0A932F9B2A
:103DB00009930D9B08930C9B079300231393299A57
:103DC0000A9B94460F9A9B006344944600270693EF
:103DD000089BB8469B0063441E93002314934346FC
:103DE0009F001E9B0F9A9C46674494464646079B3D
:103DF00043449B0063441893199B002B00DCF6E0BE
:103E00002A9AB3009446634404930B9BB2469946A6
:103E1000069B0024059300234E46BB4617931A9B2E
:103E2000002B2CDD002E2ADB049B059F99460023E6
:103E300016933B004F46B1461E00099D002D0EDB38
:103E40002D9BAB420BDD2C9B994508DA3968306815
:103E50000DF09FFE011C201C0DF084FE041C249A12
:103E6000169B9446319A65449446329A6644944629
:103E70001A9A0133169367449A42DFD14E4630991D
:103E8000059A8C462E9962448C460592049A179B9B
:103E900062440492259A01339446199A1793664412
:103EA0009342BCD12B9A56465F46002A00D1A3E02C
:103EB000B300D058211C0DF055FE1B99041C0DF0C9
:103EC0009FFE002800D01B9C1C99201C0DF0A6FE14
:103ED000002800D080E0189B10C701369F428BD18C
:103EE000209A149B9446069A013304320692219A32
:103EF0001493E0449A4200D071E7269A07999446B9
:103F0000080008996044614408912299099A8C46F6
:103F1000339962448C4609920A9A139B62440A922E
:103F2000289A013313930790934200D047E72399CF
:103F30000B9A8C4662440B92349A0C999446080072
:103F40000D99604461440D9135990E9A8C46159BEC
:103F500062440E92279A013315930C90934200D03D
:103F600023E7379A109994460800119960446144F8
:103F700011913899129A8C461D9B624412921F9A95
:103F800001331D931090934200DA04E7399B052B0F
:103F900009DC489B052B06DC3B9B052B03DC3A9B8D
:103FA000052B00DC32E612F0A5FAC046FFFF7F7F4A
:103FB000FFFF7FFF0F9B280002935346424600936A
:103FC000390023000196FFF72DF800200EE6254B5F
:103FD0001C9300231B932BE61C9B013608C7189BE0
:103FE0009F4200D17CE7199B002B00DD08E72B9A4C
:103FF0000024002A00D05BE700205BE7449B199374
:10400000459B1A93399B052B00DD71E6509B519817
:1040100027931F9B002BBCDD3E9B5299279E9C46FD
:10402000409A3F9B459D469C2691002EB1DD00287D
:10403000AFDD289076E63E9B2C933F9B2D93409BD3
:10404000219348E64F9B37E63D9A2FE6064B1C939B
:1040500000231B93ECE5FE239B051C93034B1B9352
:10406000E6E5C046FFFF7F7F0000C040000080BF44
:10407000F0B5DE464E4645465746E0B5CB68BDB086
:1040800000220B9304000D008F68FDF7DBFB01227B
:10409000060029002000FDF7D5FB002280462900FC
:1040A0002000FDF7E5FB337F81469B4643465A4699
:1040B0005B69092A40D072692000D16892680C912E
:1040C0000D92DA680E929A681B690F929B00190094
:1040D0009A46A36B9847A36B786251462000984795
:1040E0002B68B8621B68023B012B1AD86B681B68EF
:1040F000012B5CD00293B74B01220193B64B65694B
:1041000000934A2303922000B44AB549A8470123EB
:104110009A4650463DB03CBC90469946A246AB46B6
:10412000F0BDB04B2000009365694923AB4AAE490E
:10413000A84701239A46ECE7424612789246012AA4
:104140001BD142465268002A00D125E1116800299E
:1041500000D12AE15068002800D12FE10A68012A25
:1041600015D019698A4212D0A04B200000936569CE
:104170008A239A4A9C49A847CBE7012303939C4B87
:10418000656901939B4B029200938023BBE7016812
:104190008A4290D0984B03910193984B02920093DE
:1041A00020008E2365698D4A8D49A847B1E7012318
:1041B0000B9A5B4291687B631091516812788A4632
:1041C000012A00D1CDE0022A00D0C8E010990D9B51
:1041D0008C4618000F9B6044C01A0CF0A7FC431ECD
:1041E00011930C9B5146534418000E9BC01A0CF0BF
:1041F0009DFC431E119A109850430F9A94460D9AB5
:104200006044821AD143C9170A4051464B430E9964
:1042100001208C460C9963445B1AD943C9170B40A3
:1042200059100340BB605B46396010405110796003
:10423000F860012B35D0002229002000FDF702FB99
:104240000122834629002000FDF7FCFA0222824663
:1042500029002000FDF722FB0022290010902000F9
:10426000FDF706FB5246536959461A693B0008920E
:10427000BA6A303307927A6A0593043B04930C3B85
:104280000393043B02930B9B069210335246019317
:104290000090109B2000FDF79DFB8246002800D077
:1042A00037E7F3683B614346DB687B614B46DB687D
:1042B000BB61337F092B02D000239A4629E771693D
:1042C00004C91F92052A00DD81E0920020A80DF0AC
:1042D000C3FD4B46596904C92592052A77DC920033
:1042E00026A80DF0B9FD4346596904C92B92052A49
:1042F0006DDC92002CA80DF0AFFD269B209A9A420F
:1043000044DC2F99299B8B423EDC0D99139214912A
:104310000C991A93159123991B9216910121279AB2
:1043200017911E930F997B6818911C920E99289AE9
:1043300037933B6819910B921D92369313A91BABCF
:1043400017AA31A807F08AFC011E21DD3A002000DF
:10435000236C3432984782460028ADD0D9E61193B9
:1043600048E70D9B109918008C46604401380CF00A
:10437000DDFB431E11930C9B51465344180001383A
:104380000CF0D4FB431E35E70B00BEE71A00B8E77C
:1043900001235B427B638FE7194B20000093656923
:1043A00087230E4A1049A847B3E6164B2000009316
:1043B00065698823094A0C49A847AAE6124B2000E0
:1043C000009365698923054A0749A847A1E612F0C9
:1043D00091F8C046CC1A06100018061034180610C2
:1043E00048150610DC170610E8140610BC18061055
:1043F000641506109C15061040190610501606107C
:10440000B8150610CC1506109C180610020030B521
:10441000034B32CB32C232CB32C212CB12C230BDCE
:104420006819061010B51C21836B984710BDC04653
:10443000F0B557464E464546DE46E0B51C001B7AB1
:1044400007000E001500CBB0032B00D173E0210054
:104450002CA802F095FF549932A802F091FF2C99F4
:10446000329A052961DC309B052A62DD3398C068E9
:10447000834200DD030001202090052900DC75E166
:104480002D99486889682190229124A989460121A3
:1044900023932491052A00DC61E14946339A506850
:1044A000926848604946CB60B3688A603993736804
:1044B000316938936B683B932B683A936B693C93F3
:1044C000AB693D9328AB9846012342462893D360BD
:1044D00000235160F1681E93916029691F930029A0
:1044E00003DB38007B6C98471E90549A2368002A9F
:1044F00001D012685492549A38A902924A46019205
:1045000042461EA8009220AA07F0A0FE329B052B6F
:1045100000DD46E12C9B052B00DD42E14BB03CBCAD
:1045200090469946A246AB46F0BD2D9BDB68052A16
:104530009CDC36989CE78B6844A813934B681493D3
:104540000B691593CB68210016930422AB5E179379
:104550000022AB5E18936B691993AB691A9302F052
:104560000FFF236854993EA81B9302F009FF549B48
:10457000002B01D01B685493449B3E9A052B00DD11
:10458000F9E045983F99052A00DD096812908842B4
:1045900000DD1291052B00DC00E14599C868052A71
:1045A00000DCF9E03F99C9680A90884200DD0A9171
:1045B000052B00DCEBE04599486889681C901D914B
:1045C000052A00DCDAE03F9B5A689B680B920C934B
:1045D000129B002B00DCE4E000239B460B9B002B8E
:1045E00000DCB0E0179BD8461A005B42089300231A
:1045F000924607930C9B002B00DC93E05346DB4371
:104600005246DB171A401C9B0D92159A5344059392
:10461000934200DD0592189B47461A005B420993BE
:104620000023150006930A9B002B6DDDEB43DB177F
:104630002B4099461D9B9B46169BAB449B4500DD3A
:104640009B465B464A4600249B1A0F93059B0D9997
:104650008B4200DCA4E0479B08981A008446489EE1
:10466000002072430E92469AA8467A4362448C46D2
:1046700062445343099A109494461B9A63449446A7
:104680004B4473431B1963440A00040035001900AE
:10469000CB450DDD0B004E4611921A78013694463B
:1046A0005B196444B345F8D10F9B119A9C46604452
:1046B0000E9B01329C46059B61449342E8D1079BC7
:1046C000409E9C467E43419B66445E43069B0100A0
:1046D0009C462000429B66445E43549B4546984658
:1046E0004B1018180CF022FA109C199BA044984209
:1046F00000DA18001A9B984200DD180043469855CE
:104700000A9B0134A342A1D1149A09999446080046
:10471000069BAD1A0C9A01336044069309909342AC
:1047200081D1B8460899139A080051469446079BD0
:104730008A1A92460B9A0133604407930890934279
:1047400000D057E7C34601239C46129BE3445B45D8
:1047500000DD43E73E9B052B23DC449BDBE6349ADC
:1047600005924A4605995160359A9BE62E99059126
:1047700021912F9988E64599086803E7409A0B92A2
:10478000419A0C92129A002A00DD25E7C3E6469969
:104790001C9147991D9113E7429905E74898FEE659
:1047A000FFDE11F0A7FEC046F0B5DE46454657468F
:1047B0004E468846E0B50B68DFB0CE688D68596814
:1047C000436D0700984743465B680400596838000A
:1047D0007B6D98470690207A032814D0092800D1D1
:1047E00084E2012800D13FE17C69FCF73FFC9D4950
:1047F00002003800A04701205FB03CBC90469946BB
:10480000A246AB46F0BDB36821001593736840A87B
:10481000169333691793F3686E6918930422AB5E9D
:1048200013930022AB5EAD69149302F0A9FD2368D7
:10483000069C46A82100199302F0A2FD002C01D08D
:1048400023680693409B469A052B00DDB4E241980D
:104850004799052A00DD09680F90884200DD0F9115
:10486000052B00DCD6E24199C868052A00DCD5E2B8
:104870004799C9681090884200DD1091052B00DC33
:10488000E4E24199486889681A901B91052A00DC86
:10489000CFE2479B5A689B68119212930F9B002BA3
:1048A00000DC21E2002A00DC1EE2129B002B00DC6F
:1048B000CEE0109B002B00DCCAE0002358A98B46F9
:1048C000802069469C46139B09185B421C93149BED
:1048D000EAB25B421D93F3B20B701E9384216B46C8
:1048E0005B181A705B46E2461F922293139B9C460C
:1048F0001C9B6746089300239946FB43DB173B400C
:104900000D931A9B179A9C46BC44634607939342A7
:1049100000DD0792149BB8469B461D9B5C4609939D
:1049200000231E00E343DB1723400A931B9B9C4696
:10493000189BA4449C4500DD9C4663460027A44682
:104940000B930022229B0D9C1A70079BA34200DC54
:1049500057E2439B51461A00449D6A430E92429A85
:104960004A4308998B465A44A3465A445343099AEA
:104970000B9993460A9A5B449346199A5B44934673
:104980006B43DB195B448B466146002205910A9913
:104990008B4511DD18000B9105990C938C460B99F2
:1049A000037801310B934019934200D91A008B45CB
:1049B000F6D1634605930C9B0E9901348C460799FA
:1049C0006344A142E3D15B460B93059B9C46514651
:1049D000489B1E9C4B4349994B444B434A999B1916
:1049E0005943069BD819131CA24203D26B4680225E
:1049F0009B181B781F9CDAB2A24203D96B46842213
:104A00009B181B784354109B0137BB4299D1169BCE
:104A100064469C46099AE41A129B62440136099244
:104A20009E4200D07EE701239C46159B4746E14409
:104A30009C46089AFF1A119B62440892994500D03F
:104A40005BE701239C460F9BE244534500DD4DE7A5
:104A5000469B052B00DD47E1409B052B00DD43E134
:104A60000020C9E688190610337D012B00D1ADE185
:104A7000032B00D109E2022B00D10BE2D64B13939A
:104A8000D64B1293B36821001B93736834A81C9310
:104A900033691D93F3681E930422AB5E19930022C1
:104AA000AB5E1A9302F06CFC2368069C3AA82100C6
:104AB0001F9302F065FC002C01D023680693349B01
:104AC0003A9A25932292052B00DCB0E1359B1A68B7
:104AD000229B052B00DCA8E13B9B1B6816929A42A7
:104AE00000DD1693259B052B00DCCCE1359BDA68B5
:104AF000229B052B00DCC4E13B9BDB6811929A42B0
:104B000000DD1193259B052B00DCB5E1359B5A6830
:104B10009B6820922193229B052B00DC9BE13B9B11
:104B20005A689B6817921893169B002B00DCDBE0F9
:104B3000002A00DCD8E0189B002B00DCD4E0119B9D
:104B4000002B00DCC9E000230593199B5B422393F3
:104B50001A9B5B422493199B9B46239B0B93002338
:104B600008935B46DB435A46DB171A40209B14929E
:104B70001D9A5B440993934200DD09921A9BDA4621
:104B80000D93249B0C93002307930D9AD34311009C
:104B90009446DB171940219B0E9163449B461E9B54
:104BA0009B4500DD9B46059A3C9B00265343089A93
:104BB00094463D9A63445343079A94463E9A63440D
:104BC00053430A92069A9B0091469944834B14984A
:104BD000099A5893904200DB11E1379B389A1900EB
:104BE00051438900059C15913699B04661430B9C51
:104BF0000F90A4466144844661444B430C998C4613
:104C00000E9963448C461F9963448C4653439B1909
:104C10009B0063440A939300002210936F4B1C1C6B
:104C20000E9D5D4510DA0A9F3E68211C301C0CF079
:104C3000F5FF109B01359C466744002800D0341CCA
:104C4000AB45F1D10122231C159D0A98AC460F9962
:104C500060440A90099801310F918142E0D14646A3
:104C6000002A00D058931298211C0CF0D7FF00287E
:104C700000D0129C1399201C0CF0D0FF4B4600284A
:104C800000D0ADE010C39946119B0136B3429DD1CF
:104C90001C9A0D999446891A079B0D910C99189AA4
:104CA0000133614407930C91934200D06DE7514664
:104CB0001B9A089B9446891A8B460B99179A0133C5
:104CC000614408930B91934200D04AE7059B169AE2
:104CD00001330593934200DA3DE7229B052B03DC69
:104CE000259B052B00DCBBE611F004FC21004CA841
:104CF00002F046FB069952A802F042FB4C990529A6
:104D00005DDC529A509B052A5EDD5398C068834251
:104D100000DD030001202890052900DC80E04D998A
:104D20004868896829902A912CA9884601212B93EB
:104D30002C91052A67DD4146539A50689268486075
:104D40004146CB6058AB9B4673688A60B268589303
:104D50005B4659926A683169DA602A689A606A69C2
:104D60001A61AA695A6130AB994601234A463093C9
:104D70005160F168D36000239160296926932793DD
:104D8000002903DB38007B6C98472690069A23683D
:104D9000002A01D012680692069A594602924246AB
:104DA00001924A4626A8009228AA07F0F9FB529BD6
:104DB000052B99DC4C9B50E64199086848E54D9BD2
:104DC000529ADB68052AA0DC5698A0E7024B1393A1
:104DD0000023129356E6C046FFFF7F7FFFFF7FFF51
:104DE000139A013604C39946119BB34200D14FE791
:104DF0002B4B1498099A5893904200DAEDE6284C10
:104E000031E70022E3E5549A059242460599516044
:104E1000559A95E74498052A00DD29E54A9929E540
:104E20004E99059129914F997DE73B9B56E6359A1E
:104E30004EE6489A1192499A12920F9A002A00DC83
:104E40000BE6119B002B00DD2FE505E642991A9138
:104E500043991B911AE53C9B17933D9B1893169B16
:104E6000002B00DC3CE7179B002B00DC38E7189B8D
:104E7000002B00DD63E633E7369B2093379B2193BD
:104E800049E63E9B3AE6389A32E6064B13930023F6
:104E90001293F7E5FE239B051393034B1293F1E561
:104EA000FFFF7FFF0000C040000080BFF0B5DE467E
:104EB000454657464E46E0B58B680D0098460B6850
:104EC000BBB0CE685968436D070098476B68040013
:104ED000596838007B6D98471190207A032812D0CA
:104EE000092810D0012818D07C69FCF7BFF8D749F1
:104EF00002003800A04701203BB03CBC90469946D8
:104F0000A246AB46F0BD119B424600933100230000
:104F10003800FFF78DFA0020EEE7337D012B00D13A
:104F20008EE1032B00D15DE1022B00D196E1C84B4D
:104F30001493C84B1393B3682100209373682EA871
:104F4000219333692293F3682393434604229B5EA3
:104F50001B93434600229B5E1C9302F011FA2368C8
:104F6000119C34A82100249302F00AFA002C01D0ED
:104F7000236811932E9B349A25931A92052B00DCFB
:104F80003DE12F9B1A681A9B052B00DC35E1359B10
:104F90001B6818929A4200DD1893259B052B00DCB4
:104FA0004CE12F9BDA681A9B052B00DC44E1359B12
:104FB000DB6812929A4200DD1293259B052B00DCE0
:104FC00035E12F9B5A689B68269227931A9B052BE5
:104FD00000DC16E1359B58689B681D901993189B5F
:104FE000002B00DCFCE0309B389C2893319B3699E9
:104FF0001E93379A329B1F94002800DCF0E019982A
:10500000002800DCECE01298002800DCE1E01F98AA
:105010005143040050431E9A4C435A439B0016933D
:1050200000230A93099315931B9B92005B422C93D8
:105030001C9B2B945B422A9029922D931B9B9A4692
:105040002C9B07930A9B089300230E935346DB4344
:105050005246DB171A40269B1092229A534405931E
:10506000934200DD0592099A1C9B944699462D9B1C
:10507000109A0293079BC846634494461E9A634461
:105080005A43089BD1460393002317920D9343463E
:10509000DB434246DB171A40279B0F92239A434477
:1050A0000493934200DD0492039B179A9E00119B88
:1050B00000259C4666449446029B0F9A634494469E
:1050C000169A63445343249A92469A44109B059936
:1050D0008B4200DB8EE052460024AB4606920B93D7
:1050E000271C049B19000F9B994215DD069D0C930C
:1050F0002968381C0CF036FDFE21071C8905201C90
:105100000CF030FD169A0C9B9446049A0133041C53
:105110000C9365449342EBD12999069A8C460B9BDC
:1051200062440692059A01330B939342D9D15D46AE
:10513000211C381C0CF019FD1399041C0CF060FDA7
:10514000002800D0139C1499201C0CF067FD002847
:105150004DD110C604239C46129B0135E2449D426A
:10516000B4D14146219A0D9B9446891A88460299EA
:10517000039A614402911F9901338C466244039261
:10518000199A0D93934282D14946209A0E9B9446D8
:10519000891A8A460799089A614407912A99013326
:1051A0008C46624408921D9A0E93934200D04DE7BC
:1051B0002899099A8C462B9962448C4609920A9A3E
:1051C000159B62440A92189A013315939A4200DDA6
:1051D00034E71A9B052B03DC259B052B00DC9AE6A4
:1051E00011F088F91C4B149300231393A3E6149B2E
:1051F00008C6AFE70024271C9AE7359BC9E62F9A1B
:10520000C1E6369B1D93379B1993189B002BE3DD5A
:10521000309B389A28931F92319B1D9A1E93329B84
:10522000002AD9DD199A002AD6DD1D99EBE6309BBC
:105230002693319B2793C9E6389BBAE6329AB2E6A9
:10524000034B14930023139375E6C046AC19061064
:10525000FFFF7F7FFFFF7FFF0000C040FE239B0515
:105260001493014B139366E6000080BFF0B5DE4651
:1052700057464E464546E0B5002293B0CE680C0036
:1052800007008D68FCF7DEFA804600222100380016
:10529000FCF7EEFA43465B6974689A68DB689346EC
:1052A0009A46B3680590994633690293F36803936D
:1052B0003378012B00D17EE0022B3DD11000029B00
:1052C00048444946C01A0BF031FC431E0493534630
:1052D0001819039B2100C01A0BF028FC01384A461C
:1052E000049B44435343029A94465A4663449B1A90
:1052F000DA43D2171340039A944652466444A41AE0
:10530000E243D217144062102A605A106A600122E8
:105310001340EB6043461440AC601B7F012B0FD160
:10532000012300245B422B61200013B03CBC90465B
:105330009946A246AB46F0BD012040420490CEE71C
:105340002B001833317D38000093059A043BFCF79D
:10535000BBFA041EE8D1434601221B7F52422A6158
:10536000092BE1D14346596904C90692052A38DC64
:10537000920007A80CF070FD059B002B2BD05969FB
:1053800004C90C92052A2CDC92000DA80CF064FDD7
:10539000109B0A99994200DD19000F9807F0FEF85A
:1053A000011E1ADD2A0038003B6C10329847002895
:1053B000BAD00400B8E710004844494601380BF061
:1053C000B5FB431E049353461819210001380BF016
:1053D000ADFB013883E70C94DAE701235B422B61D4
:1053E000A2E711F087F8C046F0B5DE4657464E46B4
:1053F0004546E0B5002287B0CD68884606008C6837
:10540000FCF720FA0700002241463000FCF730FA92
:105410007B6905909A68DB6893469A46AB68994623
:105420006B6898462B690293EB6803932B78012BEA
:105430004ED0022B3CD11000029B48444946C01A72
:105440000BF074FB431E50460493039B4044C01A68
:1054500041460BF06BFB431E4946049A4A430299AE
:105460008C4659466244521AD143C9170A404146F4
:105470004B4303998C46514663445B1AD943C91781
:105480000B40591021605110616001210B400A400E
:10549000A360E2603B7F012B0ED1012300205B4221
:1054A000236107B03CBC90469946A246AB46F0BD8E
:1054B00001235B420493CFE723001833297D30009A
:1054C0000093059A043BFCF7FFF90028E5D0E8E7D4
:1054D00010004844494601380BF028FB431E504653
:1054E00040444146013804930BF020FB431EB3E7D0
:1054F000020030B5034B32CB32C232CB32C212CBB8
:1055000012C230BDD819061010B53821836B9847E8
:1055100010BDC046F0B54546DE4657464E46E0B59E
:105520000B6804001B680D008FB0012B15D002938F
:10553000A44B01220193A44B03920093622345697B
:105540002000A24AA249A847012630000FB03CBC67
:1055500090469946A246AB46F0BD4A681268012AB9
:1055600008D00393974B029201939A4B009345699D
:105570006323E5E70022FCF765F98246002855D051
:1055800043691B68002B32DD002229002000FCF754
:105590006FF98346002864D0AB680693002B72D065
:1055A00053461E7F072E2CD05B46187F072842D01B
:1055B000B0424DD153469B68EF689846032E00D108
:1055C000D7E1092E00D1DFE2072E00D101E2012E42
:1055D00000D043E25B46187F012800D067E23868BC
:1055E0000CF07CFB069B002618605960ADE77A4BF7
:1055F0000093662365692000744A7849A84701260C
:10560000A3E720007649A36B9847002800D116E253
:10561000069B734998622000A36B9847002800D12D
:1056200017E2069BD86253461E7FBDE76D4B009381
:1056300065696523DFE7092E00D187E1032E00D1DC
:1056400021E2072E12D0684B009365697A23D2E7D6
:10565000664B03900193664B0296009365697E2327
:105660006EE7644B009365696823C4E7DF68002F29
:105670000ED000230393604B029701935F4B00937E
:10568000656983235CE75E4B009365696A23B2E733
:10569000069BA1469B6A984608935346AA460993DF
:1056A00010E05849201C0B910CF0B8FA002868D083
:1056B0004246554B138002239C46FF33FF33E044A0
:1056C0009F4264D038000CF0AFFA50490CF061FAF8
:1056D0004F490CF044FA061C0CF00AFB8E21C90558
:1056E0000CF057FA0CF03CFB0137079038000CF037
:1056F0009BFA46490CF04DFA45490CF030FA0CF093
:10570000F7FA051C301C0CF0F3FA8E21C9050CF0D9
:1057100040FA0CF025FB8E21041CC905281C0CF056
:1057200038FA211C0CF01EFAFC2189050CF031FA24
:105730000CF016FB3749041C301C0CF013FA0CF06B
:10574000D7FA8E21C9050CF024FA0CF009FB011CD4
:10575000201C0CF004FAFC2189050CF01AFA0CF05C
:10576000FFFA011C07980CF0FAF9C7231B06191C55
:10577000041C0D900C930CF043FA002891D0C72420
:105780002406201C0CF072FA4346188093E7099B0C
:1057900055469A4680231C4A0899DB00CA520022CB
:1057A0004C4691468E22D2059046524608925A4661
:1057B000069BA246DB6A444601269846AB46079301
:1057C00009927EE0CC1A06107C1A0610181A0610F0
:1057D000481506108C1A0610B41A0610E8140610A4
:1057E00002040000A01A06103C1B06101417061035
:1057F00024170610D01A0610442B0610981B06100A
:10580000E41A061000FEFF46FF7F00000000A03CE7
:10581000000020410000203CE649201C0B910CF0C8
:10582000FDF9002876D04246E34B138002239C46C4
:10583000E24B0136E0449E4272D0281C0CF090FAF4
:10584000041C30000CF0F0F9EC2189050CF0A1F9F2
:1058500000210CF087F9FE2189050CF083F9011C69
:10586000FE2080050CF081F98E21C9050CF091F91C
:10587000211C0CF077F9FC2189050CF08AF90CF059
:105880006FFAEA21051C8905381C0CF06BF9FE2122
:1058900089050CF067F9011CFE2080050CF065F904
:1058A0008E21C9050CF075F90CF05AFA011C281C60
:1058B0000CF055F9FC2189050CF06BF90CF050FA4D
:1058C000814630000CF0B0F9EC2189050CF061F94B
:1058D00000210CF047F9FE218905071C0CF042F964
:1058E000011CFE2080050CF040F98E21C9050CF04A
:1058F00050F94946051C201C0CF031F9C7231B0642
:10590000191C041C0D900C930CF07AF9002883D01C
:10591000C7242406201C0CF0A9F94346188085E70B
:10592000089B54469A46099B5D4680229B468023ED
:105930000799DB00D201CA525A46069BD268DA6147
:105940005A4692681A6253461E7F33E653469B6856
:10595000EF6898465B469A4ADB68934200D1E9E0DB
:105960000293984B03920193974B009365693223FE
:10597000E6E55B46187F032800D084E0DB68002B57
:1059800000D0A7E040460CF0A9F9040038680D00EB
:105990000CF0A4F9069E0DAB02933300083301937B
:1059A0000523220000932B00FBF788FE0D991F2290
:1059B000F1600520FBF7FEFE0BF0CAFB0200802021
:1059C00000060B18190010000BF0DAFBB06100267E
:1059D000BBE55B46DB68002B00D08BE05B46E0213B
:1059E0009D688905281C0CF019F900287CD0E0215D
:1059F000281C89050CF0B3F874490CF00FF9002845
:105A000000D081E038680CF069F9040040460D00D0
:105A10000CF064F9069E02000B00200029000BF038
:105A20001EFB08366A4A6B4B0BF0FBFA32000DABDB
:105A3000FBF708FE069E0D9BF360002685E5664B8E
:105A40002000009365697023644A6549A847063EB3
:105A50007BE5644B009365697423CCE5300067698E
:105A6000FBF704FB05000120FBF700FB5E4B0390F6
:105A700001935E4B20000093584A55235C490295E0
:105A8000B847012661E56669FBF7F0FA05000320D7
:105A9000FBF7ECFA574B03900193574B0295009399
:105AA000292320004D4A5249B04701264DE5676938
:105AB000FBF7DCFA05000120FBF7D8FA4A4B03900C
:105AC00001934D4B20000093444A562348490295C8
:105AD000B8473AE500220293484B039201933A4BB0
